{
  "contractName": "Library",
  "abi": [
    {
      "inputs": [
        {
          "internalType": "address",
          "name": "tokenAddress",
          "type": "address"
        },
        {
          "internalType": "address payable",
          "name": "wrapperAddress",
          "type": "address"
        }
      ],
      "stateMutability": "nonpayable",
      "type": "constructor"
    },
    {
      "anonymous": false,
      "inputs": [
        {
          "indexed": false,
          "internalType": "bytes32",
          "name": "bookId",
          "type": "bytes32"
        }
      ],
      "name": "BookAdded",
      "type": "event"
    },
    {
      "anonymous": false,
      "inputs": [
        {
          "indexed": false,
          "internalType": "bytes32",
          "name": "bookId",
          "type": "bytes32"
        }
      ],
      "name": "BookBorrowed",
      "type": "event"
    },
    {
      "anonymous": false,
      "inputs": [
        {
          "indexed": false,
          "internalType": "bytes32",
          "name": "bookId",
          "type": "bytes32"
        }
      ],
      "name": "BookReturned",
      "type": "event"
    },
    {
      "anonymous": false,
      "inputs": [
        {
          "indexed": true,
          "internalType": "address",
          "name": "previousOwner",
          "type": "address"
        },
        {
          "indexed": true,
          "internalType": "address",
          "name": "newOwner",
          "type": "address"
        }
      ],
      "name": "OwnershipTransferred",
      "type": "event"
    },
    {
      "inputs": [],
      "name": "LIBToken",
      "outputs": [
        {
          "internalType": "contract LIB",
          "name": "",
          "type": "address"
        }
      ],
      "stateMutability": "view",
      "type": "function"
    },
    {
      "inputs": [
        {
          "internalType": "uint256",
          "name": "",
          "type": "uint256"
        }
      ],
      "name": "booksId",
      "outputs": [
        {
          "internalType": "bytes32",
          "name": "",
          "type": "bytes32"
        }
      ],
      "stateMutability": "view",
      "type": "function"
    },
    {
      "inputs": [
        {
          "internalType": "bytes32",
          "name": "",
          "type": "bytes32"
        }
      ],
      "name": "booksInLibrary",
      "outputs": [
        {
          "internalType": "string",
          "name": "name",
          "type": "string"
        },
        {
          "internalType": "uint32",
          "name": "copies",
          "type": "uint32"
        }
      ],
      "stateMutability": "view",
      "type": "function"
    },
    {
      "inputs": [
        {
          "internalType": "address",
          "name": "",
          "type": "address"
        },
        {
          "internalType": "bytes32",
          "name": "",
          "type": "bytes32"
        }
      ],
      "name": "borrowedBooksByUser",
      "outputs": [
        {
          "internalType": "bool",
          "name": "",
          "type": "bool"
        }
      ],
      "stateMutability": "view",
      "type": "function"
    },
    {
      "inputs": [],
      "name": "owner",
      "outputs": [
        {
          "internalType": "address",
          "name": "",
          "type": "address"
        }
      ],
      "stateMutability": "view",
      "type": "function"
    },
    {
      "inputs": [],
      "name": "renounceOwnership",
      "outputs": [],
      "stateMutability": "nonpayable",
      "type": "function"
    },
    {
      "inputs": [
        {
          "internalType": "address",
          "name": "newOwner",
          "type": "address"
        }
      ],
      "name": "transferOwnership",
      "outputs": [],
      "stateMutability": "nonpayable",
      "type": "function"
    },
    {
      "inputs": [],
      "name": "wrapper",
      "outputs": [
        {
          "internalType": "contract LIBWrapper",
          "name": "",
          "type": "address"
        }
      ],
      "stateMutability": "view",
      "type": "function"
    },
    {
      "stateMutability": "payable",
      "type": "receive"
    },
    {
      "inputs": [
        {
          "internalType": "string",
          "name": "_bookName",
          "type": "string"
        },
        {
          "internalType": "uint32",
          "name": "_bookCopies",
          "type": "uint32"
        }
      ],
      "name": "addBook",
      "outputs": [],
      "stateMutability": "nonpayable",
      "type": "function"
    },
    {
      "inputs": [
        {
          "internalType": "bytes32",
          "name": "_bookId",
          "type": "bytes32"
        }
      ],
      "name": "borrowBook",
      "outputs": [],
      "stateMutability": "payable",
      "type": "function"
    },
    {
      "inputs": [
        {
          "internalType": "bytes32",
          "name": "_bookId",
          "type": "bytes32"
        }
      ],
      "name": "returnBook",
      "outputs": [],
      "stateMutability": "nonpayable",
      "type": "function"
    },
    {
      "inputs": [],
      "name": "getBooksLength",
      "outputs": [
        {
          "internalType": "uint256",
          "name": "",
          "type": "uint256"
        }
      ],
      "stateMutability": "view",
      "type": "function"
    },
    {
      "inputs": [
        {
          "internalType": "bytes32",
          "name": "_bookId",
          "type": "bytes32"
        }
      ],
      "name": "getAddressesByBook",
      "outputs": [
        {
          "internalType": "address[]",
          "name": "",
          "type": "address[]"
        }
      ],
      "stateMutability": "view",
      "type": "function"
    },
    {
      "inputs": [
        {
          "internalType": "uint256",
          "name": "value",
          "type": "uint256"
        }
      ],
      "name": "withdraw",
      "outputs": [],
      "stateMutability": "nonpayable",
      "type": "function"
    }
  ],
  "bytecode": "0x608060405234801561001057600080fd5b50604051620013be380380620013be833981016040819052610031916100ba565b600061003b6100b6565b600080546001600160a01b0319166001600160a01b0383169081178255604051929350917f8be0079c531659141344cd1fd0a4f28419497f9722a3daafe3b4186f6b6457e0908290a350600180546001600160a01b039384166001600160a01b0319918216179091556002805492909316911617905561010b565b3390565b600080604083850312156100cc578182fd5b82516100d7816100f3565b60208401519092506100e8816100f3565b809150509250929050565b6001600160a01b038116811461010857600080fd5b50565b6112a3806200011b6000396000f3fe6080604052600436106100e15760003560e01c8063b2adb3db1161007f578063d7da8e4511610059578063d7da8e451461021b578063d7fdc27b14610249578063e727be3f14610269578063f2fde38b14610296576100e8565b8063b2adb3db146101c6578063bdaa3c1e146101e8578063d25a434814610208576100e8565b8063559b72f8116100bb578063559b72f81461015a578063715018a6146101875780638da5cb5b1461019c578063ac210cc7146101b1576100e8565b806312775c16146100ed5780631ba3192b1461010f5780632e1a7d4d1461013a576100e8565b366100e857005b600080fd5b3480156100f957600080fd5b5061010d610108366004610f1d565b6102b6565b005b34801561011b57600080fd5b50610124610381565b6040516101319190611011565b60405180910390f35b34801561014657600080fd5b5061010d610155366004610f1d565b610390565b34801561016657600080fd5b5061017a610175366004610ed4565b610552565b60405161013191906110af565b34801561019357600080fd5b5061010d610572565b3480156101a857600080fd5b5061012461063d565b3480156101bd57600080fd5b5061012461064c565b3480156101d257600080fd5b506101db61065b565b60405161013191906110ba565b3480156101f457600080fd5b5061010d610203366004610f35565b610661565b61010d610216366004610f1d565b610896565b34801561022757600080fd5b5061023b610236366004610f1d565b610b22565b6040516101319291906110c3565b34801561025557600080fd5b506101db610264366004610f1d565b610bcf565b34801561027557600080fd5b50610289610284366004610f1d565b610bf0565b6040516101319190611062565b3480156102a257600080fd5b5061010d6102b1366004610eb3565b610c60565b336000908152600560209081526040808320848452909152902054819060ff166102fb5760405162461bcd60e51b81526004016102f2906111e0565b60405180910390fd5b3360009081526005602090815260408083208584528252808320805460ff191690556004909152908190206001908101805463ffffffff19811663ffffffff91821690930116919091179055517f369184b543b045655cac4a4d8ea2b32730e4822d85e06ed940468ae561b8ca0b906103759084906110ba565b60405180910390a15050565b6001546001600160a01b031681565b610398610d81565b6001600160a01b03166103a961063d565b6001600160a01b031614610404576040805162461bcd60e51b815260206004820181905260248201527f4f776e61626c653a2063616c6c6572206973206e6f7420746865206f776e6572604482015290519081900360640190fd5b6001546002546040517f095ea7b30000000000000000000000000000000000000000000000000000000081526001600160a01b039283169263095ea7b392610453929116908590600401611049565b602060405180830381600087803b15801561046d57600080fd5b505af1158015610481573d6000803e3d6000fd5b505050506040513d601f19601f820116820180604052508101906104a59190610efd565b506002546040517fde0e9a3e0000000000000000000000000000000000000000000000000000000081526001600160a01b039091169063de0e9a3e906104ef9084906004016110ba565b600060405180830381600087803b15801561050957600080fd5b505af115801561051d573d6000803e3d6000fd5b505060405133925083156108fc02915083906000818181858888f1935050505015801561054e573d6000803e3d6000fd5b5050565b600560209081526000928352604080842090915290825290205460ff1681565b61057a610d81565b6001600160a01b031661058b61063d565b6001600160a01b0316146105e6576040805162461bcd60e51b815260206004820181905260248201527f4f776e61626c653a2063616c6c6572206973206e6f7420746865206f776e6572604482015290519081900360640190fd5b600080546040516001600160a01b03909116907f8be0079c531659141344cd1fd0a4f28419497f9722a3daafe3b4186f6b6457e0908390a36000805473ffffffffffffffffffffffffffffffffffffffff19169055565b6000546001600160a01b031690565b6002546001600160a01b031681565b60035490565b610669610d81565b6001600160a01b031661067a61063d565b6001600160a01b0316146106d5576040805162461bcd60e51b815260206004820181905260248201527f4f776e61626c653a2063616c6c6572206973206e6f7420746865206f776e6572604482015290519081900360640190fd5b816040516020018082805190602001908083835b602083106107085780518252601f1990920191602091820191016106e9565b51815160209384036101000a60001901801990921691161790526040805192909401828103601f19018352845281519181019190912060008181526004909252929020600101549193505063ffffffff161590506107785760405162461bcd60e51b81526004016102f290611172565b60008360405160200161078b9190610ff5565b60408051601f1981840301815282825280516020918201206060808501845288855263ffffffff881685840152848401819052600082815260048452939093208451805192965093949390926107e692849290910190610d85565b5060208281015160018301805463ffffffff191663ffffffff9092169190911790556040830151805161081f9260028501920190610e11565b5050600380546001810182556000919091527fc2575a0e9e593c00f959f8c92f12db2869c3395a3b0502d05e2516446f71f85b01839055506040517fab013d6358fff06254290319b91c50b8f10985c8db96af1e7d408c7d4fbbc3d8906108879084906110ba565b60405180910390a15050505050565b600081815260046020526040902060010154819063ffffffff166108cc5760405162461bcd60e51b81526004016102f290611104565b336000908152600560209081526040808320858452909152902054829060ff16156109095760405162461bcd60e51b81526004016102f2906111a9565b6001546040517f70a082310000000000000000000000000000000000000000000000000000000081526000916001600160a01b0316906370a0823190610953903390600401611011565b60206040518083038186803b15801561096b57600080fd5b505afa15801561097f573d6000803e3d6000fd5b505050506040513d601f19601f820116820180604052508101906109a39190610fdd565b116109c05760405162461bcd60e51b81526004016102f29061113b565b6001546040517f23b872dd0000000000000000000000000000000000000000000000000000000081526001600160a01b03909116906323b872dd90610a159033903090670de0b6b3a764000090600401611025565b602060405180830381600087803b158015610a2f57600080fd5b505af1158015610a43573d6000803e3d6000fd5b505050506040513d601f19601f82011682018060405250810190610a679190610efd565b5033600081815260056020908152604080832087845282528083208054600160ff19909116811790915560048352818420808201805463ffffffff19811663ffffffff918216600019019091161790556002018054918201815584529190922001805473ffffffffffffffffffffffffffffffffffffffff1916909217909155517f79bf24bf342cb8e4e6f9fab153fc4844deb5f6c9b5265e6fff7bacec53d9eac290610b159085906110ba565b60405180910390a1505050565b60046020908152600091825260409182902080548351601f60026000196101006001861615020190931692909204918201849004840281018401909452808452909291839190830182828015610bb95780601f10610b8e57610100808354040283529160200191610bb9565b820191906000526020600020905b815481529060010190602001808311610b9c57829003601f168201915b5050506001909301549192505063ffffffff1682565b60038181548110610bdf57600080fd5b600091825260209091200154905081565b600081815260046020908152604091829020600201805483518184028101840190945280845260609392830182828015610c5357602002820191906000526020600020905b81546001600160a01b03168152600190910190602001808311610c35575b505050505090505b919050565b610c68610d81565b6001600160a01b0316610c7961063d565b6001600160a01b031614610cd4576040805162461bcd60e51b815260206004820181905260248201527f4f776e61626c653a2063616c6c6572206973206e6f7420746865206f776e6572604482015290519081900360640190fd5b6001600160a01b038116610d195760405162461bcd60e51b81526004018080602001828103825260268152602001806112486026913960400191505060405180910390fd5b600080546040516001600160a01b03808516939216917f8be0079c531659141344cd1fd0a4f28419497f9722a3daafe3b4186f6b6457e091a36000805473ffffffffffffffffffffffffffffffffffffffff19166001600160a01b0392909216919091179055565b3390565b828054600181600116156101000203166002900490600052602060002090601f016020900481019282610dbb5760008555610e01565b82601f10610dd457805160ff1916838001178555610e01565b82800160010185558215610e01579182015b82811115610e01578251825591602001919060010190610de6565b50610e0d929150610e73565b5090565b828054828255906000526020600020908101928215610e01579160200282015b82811115610e01578251825473ffffffffffffffffffffffffffffffffffffffff19166001600160a01b03909116178255602090920191600190910190610e31565b5b80821115610e0d5760008155600101610e74565b80356001600160a01b0381168114610c5b57600080fd5b803563ffffffff81168114610c5b57600080fd5b600060208284031215610ec4578081fd5b610ecd82610e88565b9392505050565b60008060408385031215610ee6578081fd5b610eef83610e88565b946020939093013593505050565b600060208284031215610f0e578081fd5b81518015158114610ecd578182fd5b600060208284031215610f2e578081fd5b5035919050565b60008060408385031215610f47578182fd5b823567ffffffffffffffff80821115610f5e578384fd5b818501915085601f830112610f71578384fd5b813581811115610f7d57fe5b6040516020601f8301601f1916820181018481118382101715610f9c57fe5b6040528282528483018101891015610fb2578687fd5b828186018284013786818484010152819650610fcf818901610e9f565b955050505050509250929050565b600060208284031215610fee578081fd5b5051919050565b60008251611007818460208701611217565b9190910192915050565b6001600160a01b0391909116815260200190565b6001600160a01b039384168152919092166020820152604081019190915260600190565b6001600160a01b03929092168252602082015260400190565b6020808252825182820181905260009190848201906040850190845b818110156110a35783516001600160a01b03168352928401929184019160010161107e565b50909695505050505050565b901515815260200190565b90815260200190565b60006040825283518060408401526110e2816060850160208801611217565b63ffffffff93909316602083015250601f91909101601f191601606001919050565b60208082526017908201527f4e6f7420656e6f7567687420626f6f6b20636f70696573000000000000000000604082015260600190565b60208082526012908201527f496e737566696369656e7420616d6f756e740000000000000000000000000000604082015260600190565b60208082526017908201527f426f6f6b20616c726561647920696e206c696272617279000000000000000000604082015260600190565b6020808252601f908201527f5573657220616c726561647920626f72726f776564207468697320626f6f6b00604082015260600190565b6020808252601c908201527f5573657220646f6573206e6f742068617665207468697320626f6f6b00000000604082015260600190565b60005b8381101561123257818101518382015260200161121a565b83811115611241576000848401525b5050505056fe4f776e61626c653a206e6577206f776e657220697320746865207a65726f2061646472657373a264697066735822122021a8026190ededa7ba93d9c1ee4d1c802f72c99e5ed96de3b2518e4f6da2d8d364736f6c63430007050033",
  "source": "// SPDX-License-Identifier: UNLICENSED\npragma solidity ^0.7.0;\npragma experimental ABIEncoderV2;\n\nimport \"@openzeppelin/contracts/access/Ownable.sol\";\nimport \"./LIB.sol\";\nimport \"./LIBWrapper.sol\";\n\ncontract Library is Ownable {\n    struct Book {\n        string name;\n        uint32 copies;\n        address[] userAddresses;\n    }\n\n    LIB public LIBToken;\n    LIBWrapper public wrapper;\n\n    bytes32[] public booksId;\n    mapping(bytes32 => Book) public booksInLibrary;\n    mapping(address => mapping(bytes32 => bool)) public borrowedBooksByUser;\n\n    event BookAdded(bytes32 bookId);\n    event BookBorrowed(bytes32 bookId);\n    event BookReturned(bytes32 bookId);\n\n    constructor(address tokenAddress, address payable wrapperAddress) {\n        LIBToken = LIB(tokenAddress);\n        wrapper = LIBWrapper(wrapperAddress);\n    }\n\n    modifier bookAvailableCopies(bytes32 _bookId) {\n        require(booksInLibrary[_bookId].copies > 0, \"Not enought book copies\");\n        _;\n    }\n\n    modifier uniqueBooks(bytes32 _bookId) {\n        require(booksInLibrary[_bookId].copies == 0, \"Book already in library\");\n        _;\n    }\n\n    modifier userBorrowedBook(bytes32 _bookId) {\n        require(\n            !borrowedBooksByUser[msg.sender][_bookId],\n            \"User already borrowed this book\"\n        );\n        _;\n    }\n\n    modifier userHasBook(bytes32 _bookId) {\n        require(\n            borrowedBooksByUser[msg.sender][_bookId],\n            \"User does not have this book\"\n        );\n        _;\n    }\n\n    function addBook(string memory _bookName, uint32 _bookCopies)\n        public\n        onlyOwner\n        uniqueBooks(keccak256(abi.encodePacked(_bookName)))\n    {\n        bytes32 bookId = keccak256(abi.encodePacked(_bookName));\n        address[] memory defaultAddresses;\n        booksInLibrary[bookId] = Book(_bookName, _bookCopies, defaultAddresses);\n        booksId.push(bookId);\n\n        emit BookAdded(bookId);\n    }\n\n    function borrowBook(bytes32 _bookId)\n        public\n        payable\n        bookAvailableCopies(_bookId)\n        userBorrowedBook(_bookId)\n    {\n        require(LIBToken.balanceOf(msg.sender) > 0, \"Insuficient amount\");\n        LIBToken.transferFrom(msg.sender, address(this), 10**18);\n        borrowedBooksByUser[msg.sender][_bookId] = true;\n        booksInLibrary[_bookId].copies--;\n        booksInLibrary[_bookId].userAddresses.push(msg.sender);\n\n        emit BookBorrowed(_bookId);\n    }\n\n    function returnBook(bytes32 _bookId) public userHasBook(_bookId) {\n        borrowedBooksByUser[msg.sender][_bookId] = false;\n        booksInLibrary[_bookId].copies++;\n\n        emit BookReturned(_bookId);\n    }\n\n    function getBooksLength() public view returns (uint256) {\n        return booksId.length;\n    }\n\n    function getAddressesByBook(bytes32 _bookId)\n        public\n        view\n        returns (address[] memory)\n    {\n        return booksInLibrary[_bookId].userAddresses;\n    }\n\n    function withdraw(uint256 value) public onlyOwner {\n        LIBToken.approve(address(wrapper), value);\n        wrapper.unwrap(value);\n        msg.sender.transfer(value);\n    }\n\n    receive() external payable {}\n}\n",
  "sourcePath": "/Users/martindobrev/Code/library/contracts/Library.sol",
  "compiler": {
    "name": "solc",
    "version": "0.7.5+commit.eb77ed08.Emscripten.clang",
    "optimizer": true,
    "runs": 999
  },
  "schemaVersion": "2.3.5",
  "updatedAt": "2021-03-26T07:27:20.786Z"
}