{
    "contractName": "Library",
    "abi": [
        {
            "anonymous": false,
            "inputs": [
                {
                    "indexed": false,
                    "internalType": "bytes32",
                    "name": "bookId",
                    "type": "bytes32"
                }
            ],
            "name": "BookAdded",
            "type": "event"
        },
        {
            "anonymous": false,
            "inputs": [
                {
                    "indexed": false,
                    "internalType": "bytes32",
                    "name": "bookId",
                    "type": "bytes32"
                }
            ],
            "name": "BookBorrowed",
            "type": "event"
        },
        {
            "anonymous": false,
            "inputs": [
                {
                    "indexed": false,
                    "internalType": "bytes32",
                    "name": "bookId",
                    "type": "bytes32"
                }
            ],
            "name": "BookReturned",
            "type": "event"
        },
        {
            "anonymous": false,
            "inputs": [
                {
                    "indexed": true,
                    "internalType": "address",
                    "name": "previousOwner",
                    "type": "address"
                },
                {
                    "indexed": true,
                    "internalType": "address",
                    "name": "newOwner",
                    "type": "address"
                }
            ],
            "name": "OwnershipTransferred",
            "type": "event"
        },
        {
            "inputs": [
                {
                    "internalType": "uint256",
                    "name": "",
                    "type": "uint256"
                }
            ],
            "name": "booksId",
            "outputs": [
                {
                    "internalType": "bytes32",
                    "name": "",
                    "type": "bytes32"
                }
            ],
            "stateMutability": "view",
            "type": "function"
        },
        {
            "inputs": [
                {
                    "internalType": "bytes32",
                    "name": "",
                    "type": "bytes32"
                }
            ],
            "name": "booksInLibrary",
            "outputs": [
                {
                    "internalType": "string",
                    "name": "name",
                    "type": "string"
                },
                {
                    "internalType": "uint32",
                    "name": "copies",
                    "type": "uint32"
                }
            ],
            "stateMutability": "view",
            "type": "function"
        },
        {
            "inputs": [
                {
                    "internalType": "address",
                    "name": "",
                    "type": "address"
                },
                {
                    "internalType": "bytes32",
                    "name": "",
                    "type": "bytes32"
                }
            ],
            "name": "borrowedBooksByUser",
            "outputs": [
                {
                    "internalType": "bool",
                    "name": "",
                    "type": "bool"
                }
            ],
            "stateMutability": "view",
            "type": "function"
        },
        {
            "inputs": [],
            "name": "owner",
            "outputs": [
                {
                    "internalType": "address",
                    "name": "",
                    "type": "address"
                }
            ],
            "stateMutability": "view",
            "type": "function"
        },
        {
            "inputs": [],
            "name": "renounceOwnership",
            "outputs": [],
            "stateMutability": "nonpayable",
            "type": "function"
        },
        {
            "inputs": [
                {
                    "internalType": "address",
                    "name": "newOwner",
                    "type": "address"
                }
            ],
            "name": "transferOwnership",
            "outputs": [],
            "stateMutability": "nonpayable",
            "type": "function"
        },
        {
            "inputs": [
                {
                    "internalType": "string",
                    "name": "_bookName",
                    "type": "string"
                },
                {
                    "internalType": "uint32",
                    "name": "_bookCopies",
                    "type": "uint32"
                }
            ],
            "name": "addBook",
            "outputs": [],
            "stateMutability": "nonpayable",
            "type": "function"
        },
        {
            "inputs": [
                {
                    "internalType": "bytes32",
                    "name": "_bookId",
                    "type": "bytes32"
                }
            ],
            "name": "borrowBook",
            "outputs": [],
            "stateMutability": "nonpayable",
            "type": "function"
        },
        {
            "inputs": [
                {
                    "internalType": "bytes32",
                    "name": "_bookId",
                    "type": "bytes32"
                }
            ],
            "name": "returnBook",
            "outputs": [],
            "stateMutability": "nonpayable",
            "type": "function"
        },
        {
            "inputs": [],
            "name": "getBooksLength",
            "outputs": [
                {
                    "internalType": "uint256",
                    "name": "",
                    "type": "uint256"
                }
            ],
            "stateMutability": "view",
            "type": "function"
        },
        {
            "inputs": [
                {
                    "internalType": "bytes32",
                    "name": "_bookId",
                    "type": "bytes32"
                }
            ],
            "name": "getAddressesByBook",
            "outputs": [
                {
                    "internalType": "address[]",
                    "name": "",
                    "type": "address[]"
                }
            ],
            "stateMutability": "view",
            "type": "function"
        }
    ],
    "bytecode": "0x608060405234801561001057600080fd5b5060006100216100c460201b60201c565b9050806000806101000a81548173ffffffffffffffffffffffffffffffffffffffff021916908373ffffffffffffffffffffffffffffffffffffffff1602179055508073ffffffffffffffffffffffffffffffffffffffff16600073ffffffffffffffffffffffffffffffffffffffff167f8be0079c531659141344cd1fd0a4f28419497f9722a3daafe3b4186f6b6457e060405160405180910390a3506100cc565b600033905090565b6116da806100db6000396000f3fe608060405234801561001057600080fd5b50600436106100a95760003560e01c8063bdaa3c1e11610071578063bdaa3c1e14610140578063d25a43481461015c578063d7da8e4514610178578063d7fdc27b146101a9578063e727be3f146101d9578063f2fde38b14610209576100a9565b806312775c16146100ae578063559b72f8146100ca578063715018a6146100fa5780638da5cb5b14610104578063b2adb3db14610122575b600080fd5b6100c860048036038101906100c39190610fbf565b610225565b005b6100e460048036038101906100df9190610f83565b6103b6565b6040516100f19190611399565b60405180910390f35b6101026103e5565b005b61010c61051f565b604051610119919061135c565b60405180910390f35b61012a610548565b60405161013791906114bf565b60405180910390f35b61015a60048036038101906101559190610fe8565b610555565b005b61017660048036038101906101719190610fbf565b610793565b005b610192600480360381019061018d9190610fbf565b610a0e565b6040516101a09291906113cf565b60405180910390f35b6101c360048036038101906101be919061103c565b610ada565b6040516101d091906113b4565b60405180910390f35b6101f360048036038101906101ee9190610fbf565b610afb565b6040516102009190611377565b60405180910390f35b610223600480360381019061021e9190610f5a565b610b9f565b005b80600360003373ffffffffffffffffffffffffffffffffffffffff1673ffffffffffffffffffffffffffffffffffffffff168152602001908152602001600020600082815260200190815260200160002060009054906101000a900460ff166102c3576040517f08c379a00000000000000000000000000000000000000000000000000000000081526004016102ba9061149f565b60405180910390fd5b6000600360003373ffffffffffffffffffffffffffffffffffffffff1673ffffffffffffffffffffffffffffffffffffffff168152602001908152602001600020600084815260200190815260200160002060006101000a81548160ff02191690831515021790555060026000838152602001908152602001600020600101600081819054906101000a900463ffffffff168092919060010191906101000a81548163ffffffff021916908363ffffffff160217905550507f369184b543b045655cac4a4d8ea2b32730e4822d85e06ed940468ae561b8ca0b826040516103aa91906113b4565b60405180910390a15050565b60036020528160005260406000206020528060005260406000206000915091509054906101000a900460ff1681565b6103ed610d48565b73ffffffffffffffffffffffffffffffffffffffff1661040b61051f565b73ffffffffffffffffffffffffffffffffffffffff1614610461576040517f08c379a00000000000000000000000000000000000000000000000000000000081526004016104589061145f565b60405180910390fd5b600073ffffffffffffffffffffffffffffffffffffffff1660008054906101000a900473ffffffffffffffffffffffffffffffffffffffff1673ffffffffffffffffffffffffffffffffffffffff167f8be0079c531659141344cd1fd0a4f28419497f9722a3daafe3b4186f6b6457e060405160405180910390a360008060006101000a81548173ffffffffffffffffffffffffffffffffffffffff021916908373ffffffffffffffffffffffffffffffffffffffff160217905550565b60008060009054906101000a900473ffffffffffffffffffffffffffffffffffffffff16905090565b6000600180549050905090565b61055d610d48565b73ffffffffffffffffffffffffffffffffffffffff1661057b61051f565b73ffffffffffffffffffffffffffffffffffffffff16146105d1576040517f08c379a00000000000000000000000000000000000000000000000000000000081526004016105c89061145f565b60405180910390fd5b816040516020016105e29190611345565b6040516020818303038152906040528051906020012060006002600083815260200190815260200160002060010160009054906101000a900463ffffffff1663ffffffff1614610667576040517f08c379a000000000000000000000000000000000000000000000000000000000815260040161065e9061143f565b60405180910390fd5b60008360405160200161067a9190611345565b604051602081830303815290604052805190602001209050606060405180606001604052808681526020018563ffffffff168152602001828152506002600084815260200190815260200160002060008201518160000190805190602001906106e4929190610d50565b5060208201518160010160006101000a81548163ffffffff021916908363ffffffff1602179055506040820151816002019080519060200190610728929190610dd0565b5090505060018290806001815401808255809150506001900390600052602060002001600090919091909150557fab013d6358fff06254290319b91c50b8f10985c8db96af1e7d408c7d4fbbc3d88260405161078491906113b4565b60405180910390a15050505050565b8060006002600083815260200190815260200160002060010160009054906101000a900463ffffffff1663ffffffff1611610803576040517f08c379a00000000000000000000000000000000000000000000000000000000081526004016107fa906113ff565b60405180910390fd5b81600360003373ffffffffffffffffffffffffffffffffffffffff1673ffffffffffffffffffffffffffffffffffffffff168152602001908152602001600020600082815260200190815260200160002060009054906101000a900460ff16156108a2576040517f08c379a00000000000000000000000000000000000000000000000000000000081526004016108999061147f565b60405180910390fd5b6001600360003373ffffffffffffffffffffffffffffffffffffffff1673ffffffffffffffffffffffffffffffffffffffff168152602001908152602001600020600085815260200190815260200160002060006101000a81548160ff02191690831515021790555060026000848152602001908152602001600020600101600081819054906101000a900463ffffffff16809291906001900391906101000a81548163ffffffff021916908363ffffffff1602179055505060026000848152602001908152602001600020600201339080600181540180825580915050600190039060005260206000200160009091909190916101000a81548173ffffffffffffffffffffffffffffffffffffffff021916908373ffffffffffffffffffffffffffffffffffffffff1602179055507f79bf24bf342cb8e4e6f9fab153fc4844deb5f6c9b5265e6fff7bacec53d9eac283604051610a0191906113b4565b60405180910390a1505050565b6002602052806000526040600020600091509050806000018054600181600116156101000203166002900480601f016020809104026020016040519081016040528092919081815260200182805460018160011615610100020316600290048015610aba5780601f10610a8f57610100808354040283529160200191610aba565b820191906000526020600020905b815481529060010190602001808311610a9d57829003601f168201915b5050505050908060010160009054906101000a900463ffffffff16905082565b60018181548110610ae757fe5b906000526020600020016000915090505481565b606060026000838152602001908152602001600020600201805480602002602001604051908101604052809291908181526020018280548015610b9357602002820191906000526020600020905b8160009054906101000a900473ffffffffffffffffffffffffffffffffffffffff1673ffffffffffffffffffffffffffffffffffffffff1681526020019060010190808311610b49575b50505050509050919050565b610ba7610d48565b73ffffffffffffffffffffffffffffffffffffffff16610bc561051f565b73ffffffffffffffffffffffffffffffffffffffff1614610c1b576040517f08c379a0000000000000000000000000000000000000000000000000000000008152600401610c129061145f565b60405180910390fd5b600073ffffffffffffffffffffffffffffffffffffffff168173ffffffffffffffffffffffffffffffffffffffff161415610c8b576040517f08c379a0000000000000000000000000000000000000000000000000000000008152600401610c829061141f565b60405180910390fd5b8073ffffffffffffffffffffffffffffffffffffffff1660008054906101000a900473ffffffffffffffffffffffffffffffffffffffff1673ffffffffffffffffffffffffffffffffffffffff167f8be0079c531659141344cd1fd0a4f28419497f9722a3daafe3b4186f6b6457e060405160405180910390a3806000806101000a81548173ffffffffffffffffffffffffffffffffffffffff021916908373ffffffffffffffffffffffffffffffffffffffff16021790555050565b600033905090565b828054600181600116156101000203166002900490600052602060002090601f016020900481019282601f10610d9157805160ff1916838001178555610dbf565b82800160010185558215610dbf579182015b82811115610dbe578251825591602001919060010190610da3565b5b509050610dcc9190610e5a565b5090565b828054828255906000526020600020908101928215610e49579160200282015b82811115610e485782518260006101000a81548173ffffffffffffffffffffffffffffffffffffffff021916908373ffffffffffffffffffffffffffffffffffffffff16021790555091602001919060010190610df0565b5b509050610e569190610e77565b5090565b5b80821115610e73576000816000905550600101610e5b565b5090565b5b80821115610eae57600081816101000a81549073ffffffffffffffffffffffffffffffffffffffff021916905550600101610e78565b5090565b600081359050610ec181611648565b92915050565b600081359050610ed68161165f565b92915050565b600082601f830112610eed57600080fd5b8135610f00610efb82611507565b6114da565b91508082526020830160208301858383011115610f1c57600080fd5b610f278382846115f5565b50505092915050565b600081359050610f3f81611676565b92915050565b600081359050610f548161168d565b92915050565b600060208284031215610f6c57600080fd5b6000610f7a84828501610eb2565b91505092915050565b60008060408385031215610f9657600080fd5b6000610fa485828601610eb2565b9250506020610fb585828601610ec7565b9150509250929050565b600060208284031215610fd157600080fd5b6000610fdf84828501610ec7565b91505092915050565b60008060408385031215610ffb57600080fd5b600083013567ffffffffffffffff81111561101557600080fd5b61102185828601610edc565b925050602061103285828601610f45565b9150509250929050565b60006020828403121561104e57600080fd5b600061105c84828501610f30565b91505092915050565b6000611071838361107d565b60208301905092915050565b61108681611593565b82525050565b61109581611593565b82525050565b60006110a682611543565b6110b08185611566565b93506110bb83611533565b8060005b838110156110ec5781516110d38882611065565b97506110de83611559565b9250506001810190506110bf565b5085935050505092915050565b611102816115a5565b82525050565b611111816115b1565b82525050565b60006111228261154e565b61112c8185611577565b935061113c818560208601611604565b61114581611637565b840191505092915050565b600061115b8261154e565b6111658185611588565b9350611175818560208601611604565b80840191505092915050565b600061118e601783611577565b91507f4e6f7420656e6f7567687420626f6f6b20636f706965730000000000000000006000830152602082019050919050565b60006111ce602683611577565b91507f4f776e61626c653a206e6577206f776e657220697320746865207a65726f206160008301527f64647265737300000000000000000000000000000000000000000000000000006020830152604082019050919050565b6000611234601783611577565b91507f426f6f6b20616c726561647920696e206c6962726172790000000000000000006000830152602082019050919050565b6000611274602083611577565b91507f4f776e61626c653a2063616c6c6572206973206e6f7420746865206f776e65726000830152602082019050919050565b60006112b4601f83611577565b91507f5573657220616c726561647920626f72726f776564207468697320626f6f6b006000830152602082019050919050565b60006112f4601c83611577565b91507f5573657220646f6573206e6f742068617665207468697320626f6f6b000000006000830152602082019050919050565b611330816115db565b82525050565b61133f816115e5565b82525050565b60006113518284611150565b915081905092915050565b6000602082019050611371600083018461108c565b92915050565b60006020820190508181036000830152611391818461109b565b905092915050565b60006020820190506113ae60008301846110f9565b92915050565b60006020820190506113c96000830184611108565b92915050565b600060408201905081810360008301526113e98185611117565b90506113f86020830184611336565b9392505050565b6000602082019050818103600083015261141881611181565b9050919050565b60006020820190508181036000830152611438816111c1565b9050919050565b6000602082019050818103600083015261145881611227565b9050919050565b6000602082019050818103600083015261147881611267565b9050919050565b60006020820190508181036000830152611498816112a7565b9050919050565b600060208201905081810360008301526114b8816112e7565b9050919050565b60006020820190506114d46000830184611327565b92915050565b6000604051905081810181811067ffffffffffffffff821117156114fd57600080fd5b8060405250919050565b600067ffffffffffffffff82111561151e57600080fd5b601f19601f8301169050602081019050919050565b6000819050602082019050919050565b600081519050919050565b600081519050919050565b6000602082019050919050565b600082825260208201905092915050565b600082825260208201905092915050565b600081905092915050565b600061159e826115bb565b9050919050565b60008115159050919050565b6000819050919050565b600073ffffffffffffffffffffffffffffffffffffffff82169050919050565b6000819050919050565b600063ffffffff82169050919050565b82818337600083830152505050565b60005b83811015611622578082015181840152602081019050611607565b83811115611631576000848401525b50505050565b6000601f19601f8301169050919050565b61165181611593565b811461165c57600080fd5b50565b611668816115b1565b811461167357600080fd5b50565b61167f816115db565b811461168a57600080fd5b50565b611696816115e5565b81146116a157600080fd5b5056fea26469706673582212200d6dd10bb3897cb003a5117f722b7fe8c6dba94dd4189986fb405043c166e27164736f6c63430007000033",
    "source": "// SPDX-License-Identifier: UNLICENSED\npragma solidity ^0.7.0;\npragma experimental ABIEncoderV2;\n\nimport \"@openzeppelin/contracts/access/Ownable.sol\";\n\ncontract Library is Ownable {\n    struct Book {\n        string name;\n        uint32 copies;\n        address[] userAddresses;\n    }\n\n    bytes32[] public booksId;\n    mapping(bytes32 => Book) public booksInLibrary;\n    mapping(address => mapping(bytes32 => bool)) public borrowedBooksByUser;\n\n    event BookAdded(bytes32 bookId);\n    event BookBorrowed(bytes32 bookId);\n    event BookReturned(bytes32 bookId);\n\n    modifier bookAvailableCopies(bytes32 _bookId) {\n        require(booksInLibrary[_bookId].copies > 0, \"Not enought book copies\");\n        _;\n    }\n\n    modifier uniqueBooks(bytes32 _bookId) {\n        require(booksInLibrary[_bookId].copies == 0, \"Book already in library\");\n        _;\n    }\n\n    modifier userBorrowedBook(bytes32 _bookId) {\n        require(\n            !borrowedBooksByUser[msg.sender][_bookId],\n            \"User already borrowed this book\"\n        );\n        _;\n    }\n\n    modifier userHasBook(bytes32 _bookId) {\n        require(\n            borrowedBooksByUser[msg.sender][_bookId],\n            \"User does not have this book\"\n        );\n        _;\n    }\n\n    function addBook(string memory _bookName, uint32 _bookCopies)\n        public\n        onlyOwner\n        uniqueBooks(keccak256(abi.encodePacked(_bookName)))\n    {\n        bytes32 bookId = keccak256(abi.encodePacked(_bookName));\n        address[] memory defaultAddresses;\n        booksInLibrary[bookId] = Book(_bookName, _bookCopies, defaultAddresses);\n        booksId.push(bookId);\n\n        emit BookAdded(bookId);\n    }\n\n    function borrowBook(bytes32 _bookId)\n        public\n        bookAvailableCopies(_bookId)\n        userBorrowedBook(_bookId)\n    {\n        borrowedBooksByUser[msg.sender][_bookId] = true;\n        booksInLibrary[_bookId].copies--;\n        booksInLibrary[_bookId].userAddresses.push(msg.sender);\n\n        emit BookBorrowed(_bookId);\n    }\n\n    function returnBook(bytes32 _bookId) public userHasBook(_bookId) {\n        borrowedBooksByUser[msg.sender][_bookId] = false;\n        booksInLibrary[_bookId].copies++;\n\n        emit BookReturned(_bookId);\n    }\n\n    function getBooksLength() public view returns (uint256) {\n        return booksId.length;\n    }\n\n    function getAddressesByBook(bytes32 _bookId)\n        public\n        view\n        returns (address[] memory)\n    {\n        return booksInLibrary[_bookId].userAddresses;\n    }\n}\n",
    "sourcePath": "/Users/martindobrev/Code/library/contracts/Library.sol",
    "compiler": {
        "name": "solc",
        "version": "0.7.0+commit.9e61f92b.Emscripten.clang",
        "optimizer": false,
        "runs": 200
    },
    "schemaVersion": "2.3.5",
    "updatedAt": "2021-03-22T15:11:04.190Z"
}